{
  "_format": "hh-sol-artifact-1",
  "contractName": "WavePortal",
  "sourceName": "contracts/WavePortal.sol",
  "abi": [
    {
      "inputs": [],
      "stateMutability": "payable",
      "type": "constructor"
    },
    {
      "inputs": [],
      "name": "getAllAddresses",
      "outputs": [
        {
          "internalType": "address[]",
          "name": "",
          "type": "address[]"
        }
      ],
      "stateMutability": "view",
      "type": "function"
    },
    {
      "inputs": [],
      "name": "getTotalWaves",
      "outputs": [
        {
          "internalType": "uint256",
          "name": "",
          "type": "uint256"
        }
      ],
      "stateMutability": "view",
      "type": "function"
    },
    {
      "inputs": [
        {
          "internalType": "address",
          "name": "_address",
          "type": "address"
        }
      ],
      "name": "getWaves",
      "outputs": [
        {
          "internalType": "uint256",
          "name": "",
          "type": "uint256"
        }
      ],
      "stateMutability": "view",
      "type": "function"
    },
    {
      "inputs": [],
      "name": "wave",
      "outputs": [],
      "stateMutability": "nonpayable",
      "type": "function"
    }
  ],
  "bytecode": "0x608060405261004c6040518060400160405280601581526020017f4920616d206120736d6172742d636f6e7472616374000000000000000000000081525061005160201b6104411760201c565b6101d4565b6100ed816040516024016100659190610152565b6040516020818303038152906040527f41304fac000000000000000000000000000000000000000000000000000000007bffffffffffffffffffffffffffffffffffffffffffffffffffffffff19166020820180517bffffffffffffffffffffffffffffffffffffffffffffffffffffffff83818316178352505050506100f060201b60201c565b50565b60008151905060006a636f6e736f6c652e6c6f679050602083016000808483855afa5050505050565b600061012482610174565b61012e818561017f565b935061013e818560208601610190565b610147816101c3565b840191505092915050565b6000602082019050818103600083015261016c8184610119565b905092915050565b600081519050919050565b600082825260208201905092915050565b60005b838110156101ae578082015181840152602081019050610193565b838111156101bd576000848401525b50505050565b6000601f19601f8301169050919050565b610ad9806101e36000396000f3fe608060405234801561001057600080fd5b506004361061004c5760003560e01c806329dec6e1146100515780636fe15b44146100815780639516a1041461008b5780639a2cdc08146100a9575b600080fd5b61006b60048036038101906100669190610650565b6100c7565b60405161007891906108b7565b60405180910390f35b610089610110565b005b610093610368565b6040516100a091906107d3565b60405180910390f35b6100b16103f6565b6040516100be91906108b7565b60405180910390f35b6000600160008373ffffffffffffffffffffffffffffffffffffffff1673ffffffffffffffffffffffffffffffffffffffff168152602001908152602001600020549050919050565b6000600160003373ffffffffffffffffffffffffffffffffffffffff1673ffffffffffffffffffffffffffffffffffffffff1681526020019081526020016000205414156101bc576002339080600181540180825580915050600190039060005260206000200160009091909190916101000a81548173ffffffffffffffffffffffffffffffffffffffff021916908373ffffffffffffffffffffffffffffffffffffffff1602179055505b60016000808282546101ce9190610932565b9250508190555060018060003373ffffffffffffffffffffffffffffffffffffffff1673ffffffffffffffffffffffffffffffffffffffff16815260200190815260200160002060008282546102249190610932565b9250508190555061026a6040518060400160405280600d81526020017f2573206861732077617665642100000000000000000000000000000000000000815250336104da565b6000655af3107a40009050804710156102b8576040517f08c379a00000000000000000000000000000000000000000000000000000000081526004016102af90610877565b60405180910390fd5b60003373ffffffffffffffffffffffffffffffffffffffff16826040516102de906107be565b60006040518083038185875af1925050503d806000811461031b576040519150601f19603f3d011682016040523d82523d6000602084013e610320565b606091505b5050905080610364576040517f08c379a000000000000000000000000000000000000000000000000000000000815260040161035b90610897565b60405180910390fd5b5050565b606060028054806020026020016040519081016040528092919081815260200182805480156103ec57602002820191906000526020600020905b8160009054906101000a900473ffffffffffffffffffffffffffffffffffffffff1673ffffffffffffffffffffffffffffffffffffffff16815260200190600101908083116103a2575b5050505050905090565b60006104396040518060400160405280601881526020017f5765206861766520746f74616c3a202564207761766573210000000000000000815250600054610576565b600054905090565b6104d78160405160240161045591906107f5565b6040516020818303038152906040527f41304fac000000000000000000000000000000000000000000000000000000007bffffffffffffffffffffffffffffffffffffffffffffffffffffffff19166020820180517bffffffffffffffffffffffffffffffffffffffffffffffffffffffff8381831617835250505050610612565b50565b61057282826040516024016104f0929190610817565b6040516020818303038152906040527f319af333000000000000000000000000000000000000000000000000000000007bffffffffffffffffffffffffffffffffffffffffffffffffffffffff19166020820180517bffffffffffffffffffffffffffffffffffffffffffffffffffffffff8381831617835250505050610612565b5050565b61060e828260405160240161058c929190610847565b6040516020818303038152906040527f9710a9d0000000000000000000000000000000000000000000000000000000007bffffffffffffffffffffffffffffffffffffffffffffffffffffffff19166020820180517bffffffffffffffffffffffffffffffffffffffffffffffffffffffff8381831617835250505050610612565b5050565b60008151905060006a636f6e736f6c652e6c6f679050602083016000808483855afa5050505050565b60008135905061064a81610a8c565b92915050565b60006020828403121561066257600080fd5b60006106708482850161063b565b91505092915050565b60006106858383610691565b60208301905092915050565b61069a81610988565b82525050565b6106a981610988565b82525050565b60006106ba826108e2565b6106c48185610905565b93506106cf836108d2565b8060005b838110156107005781516106e78882610679565b97506106f2836108f8565b9250506001810190506106d3565b5085935050505092915050565b6000610718826108ed565b6107228185610921565b93506107328185602086016109c4565b61073b81610a26565b840191505092915050565b6000610753601283610921565b915061075e82610a37565b602082019050919050565b6000610776601e83610921565b915061078182610a60565b602082019050919050565b6000610799600083610916565b91506107a482610a89565b600082019050919050565b6107b8816109ba565b82525050565b60006107c98261078c565b9150819050919050565b600060208201905081810360008301526107ed81846106af565b905092915050565b6000602082019050818103600083015261080f818461070d565b905092915050565b60006040820190508181036000830152610831818561070d565b905061084060208301846106a0565b9392505050565b60006040820190508181036000830152610861818561070d565b905061087060208301846107af565b9392505050565b6000602082019050818103600083015261089081610746565b9050919050565b600060208201905081810360008301526108b081610769565b9050919050565b60006020820190506108cc60008301846107af565b92915050565b6000819050602082019050919050565b600081519050919050565b600081519050919050565b6000602082019050919050565b600082825260208201905092915050565b600081905092915050565b600082825260208201905092915050565b600061093d826109ba565b9150610948836109ba565b9250827fffffffffffffffffffffffffffffffffffffffffffffffffffffffffffffffff0382111561097d5761097c6109f7565b5b828201905092915050565b60006109938261099a565b9050919050565b600073ffffffffffffffffffffffffffffffffffffffff82169050919050565b6000819050919050565b60005b838110156109e25780820151818401526020810190506109c7565b838111156109f1576000848401525b50505050565b7f4e487b7100000000000000000000000000000000000000000000000000000000600052601160045260246000fd5b6000601f19601f8301169050919050565b7f496e73756666696369656e742066756e64730000000000000000000000000000600082015250565b7f4661696c656420746f2073656e6420746865207072697a65206d6f6e65790000600082015250565b50565b610a9581610988565b8114610aa057600080fd5b5056fea264697066735822122096e742da266be2a4e6594853975705d934fe5dd203c01c32459152e60c9ee74f64736f6c63430008040033",
  "linkReferences": {},
  "deployedLinkReferences": {}
}