{
    "_format": "hh-sol-artifact-1",
    "contractName": "WavePortal",
    "sourceName": "contracts/WavePortal.sol",
    "abi": [
        {
            "inputs": [],
            "stateMutability": "nonpayable",
            "type": "constructor"
        },
        {
            "inputs": [],
            "name": "getAllAddresses",
            "outputs": [
                {
                    "internalType": "address[]",
                    "name": "",
                    "type": "address[]"
                }
            ],
            "stateMutability": "view",
            "type": "function"
        },
        {
            "inputs": [],
            "name": "getTotalWaves",
            "outputs": [
                {
                    "internalType": "uint256",
                    "name": "",
                    "type": "uint256"
                }
            ],
            "stateMutability": "view",
            "type": "function"
        },
        {
            "inputs": [
                {
                    "internalType": "address",
                    "name": "_address",
                    "type": "address"
                }
            ],
            "name": "getWaves",
            "outputs": [
                {
                    "internalType": "uint256",
                    "name": "",
                    "type": "uint256"
                }
            ],
            "stateMutability": "view",
            "type": "function"
        },
        {
            "inputs": [],
            "name": "wave",
            "outputs": [],
            "stateMutability": "nonpayable",
            "type": "function"
        }
    ],
    "bytecode": "0x608060405234801561001057600080fd5b506100596040518060400160405280601581526020017f4920616d206120736d6172742d636f6e7472616374000000000000000000000081525061005e60201b6102fc1760201c565b6101e1565b6100fa81604051602401610072919061015f565b6040516020818303038152906040527f41304fac000000000000000000000000000000000000000000000000000000007bffffffffffffffffffffffffffffffffffffffffffffffffffffffff19166020820180517bffffffffffffffffffffffffffffffffffffffffffffffffffffffff83818316178352505050506100fd60201b60201c565b50565b60008151905060006a636f6e736f6c652e6c6f679050602083016000808483855afa5050505050565b600061013182610181565b61013b818561018c565b935061014b81856020860161019d565b610154816101d0565b840191505092915050565b600060208201905081810360008301526101798184610126565b905092915050565b600081519050919050565b600082825260208201905092915050565b60005b838110156101bb5780820151818401526020810190506101a0565b838111156101ca576000848401525b50505050565b6000601f19601f8301169050919050565b610876806101f06000396000f3fe608060405234801561001057600080fd5b506004361061004c5760003560e01c806329dec6e1146100515780636fe15b44146100815780639516a1041461008b5780639a2cdc08146100a9575b600080fd5b61006b6004803603810190610066919061050b565b6100c7565b60405161007891906106b4565b60405180910390f35b610089610110565b005b610093610223565b6040516100a09190610610565b60405180910390f35b6100b16102b1565b6040516100be91906106b4565b60405180910390f35b6000600160008373ffffffffffffffffffffffffffffffffffffffff1673ffffffffffffffffffffffffffffffffffffffff168152602001908152602001600020549050919050565b6002339080600181540180825580915050600190039060005260206000200160009091909190916101000a81548173ffffffffffffffffffffffffffffffffffffffff021916908373ffffffffffffffffffffffffffffffffffffffff16021790555060016000808282546101859190610724565b9250508190555060018060003373ffffffffffffffffffffffffffffffffffffffff1673ffffffffffffffffffffffffffffffffffffffff16815260200190815260200160002060008282546101db9190610724565b925050819055506102216040518060400160405280600d81526020017f257320686173207761766564210000000000000000000000000000000000000081525033610395565b565b606060028054806020026020016040519081016040528092919081815260200182805480156102a757602002820191906000526020600020905b8160009054906101000a900473ffffffffffffffffffffffffffffffffffffffff1673ffffffffffffffffffffffffffffffffffffffff168152602001906001019080831161025d575b5050505050905090565b60006102f46040518060400160405280601881526020017f5765206861766520746f74616c3a202564207761766573210000000000000000815250600054610431565b600054905090565b610392816040516024016103109190610632565b6040516020818303038152906040527f41304fac000000000000000000000000000000000000000000000000000000007bffffffffffffffffffffffffffffffffffffffffffffffffffffffff19166020820180517bffffffffffffffffffffffffffffffffffffffffffffffffffffffff83818316178352505050506104cd565b50565b61042d82826040516024016103ab929190610654565b6040516020818303038152906040527f319af333000000000000000000000000000000000000000000000000000000007bffffffffffffffffffffffffffffffffffffffffffffffffffffffff19166020820180517bffffffffffffffffffffffffffffffffffffffffffffffffffffffff83818316178352505050506104cd565b5050565b6104c98282604051602401610447929190610684565b6040516020818303038152906040527f9710a9d0000000000000000000000000000000000000000000000000000000007bffffffffffffffffffffffffffffffffffffffffffffffffffffffff19166020820180517bffffffffffffffffffffffffffffffffffffffffffffffffffffffff83818316178352505050506104cd565b5050565b60008151905060006a636f6e736f6c652e6c6f679050602083016000808483855afa5050505050565b60008135905061050581610829565b92915050565b60006020828403121561051d57600080fd5b600061052b848285016104f6565b91505092915050565b6000610540838361054c565b60208301905092915050565b6105558161077a565b82525050565b6105648161077a565b82525050565b6000610575826106df565b61057f8185610702565b935061058a836106cf565b8060005b838110156105bb5781516105a28882610534565b97506105ad836106f5565b92505060018101905061058e565b5085935050505092915050565b60006105d3826106ea565b6105dd8185610713565b93506105ed8185602086016107b6565b6105f681610818565b840191505092915050565b61060a816107ac565b82525050565b6000602082019050818103600083015261062a818461056a565b905092915050565b6000602082019050818103600083015261064c81846105c8565b905092915050565b6000604082019050818103600083015261066e81856105c8565b905061067d602083018461055b565b9392505050565b6000604082019050818103600083015261069e81856105c8565b90506106ad6020830184610601565b9392505050565b60006020820190506106c96000830184610601565b92915050565b6000819050602082019050919050565b600081519050919050565b600081519050919050565b6000602082019050919050565b600082825260208201905092915050565b600082825260208201905092915050565b600061072f826107ac565b915061073a836107ac565b9250827fffffffffffffffffffffffffffffffffffffffffffffffffffffffffffffffff0382111561076f5761076e6107e9565b5b828201905092915050565b60006107858261078c565b9050919050565b600073ffffffffffffffffffffffffffffffffffffffff82169050919050565b6000819050919050565b60005b838110156107d45780820151818401526020810190506107b9565b838111156107e3576000848401525b50505050565b7f4e487b7100000000000000000000000000000000000000000000000000000000600052601160045260246000fd5b6000601f19601f8301169050919050565b6108328161077a565b811461083d57600080fd5b5056fea2646970667358221220ac665f8f05da77618a27788c1cc5df3bf6b1ef94ca3af9aa1dc572ce5d351c2864736f6c63430008040033",
    "linkReferences": {},
    "deployedLinkReferences": {}
}